:020000040800F2
:1000000050080020010100085D2000088514000848
:10001000592000083D0C00086B300008000000006B
:10002000000000000000000000000000012900089E
:10003000810F00080000000091270008152A000821
:100040001B0100081B0100081B0100081B01000820
:100050001B0100081B0100081B0100081B01000810
:100060001B0100081B0100081B0100081B01000800
:100070001B0100081B0100081B0100081B010008F0
:100080001B0100081B0100081B0100081B010008E0
:100090001B0100081B0100081B0100081B010008D0
:1000A0001B0100081B0100081B0100081B010008C0
:1000B000792A00081B0100081B0100081B01000829
:1000C0001B0100081B0100081B0100081B010008A0
:1000D0001B010008892C0008A52D00081B01000841
:1000E0001B0100081B0100081B010008DFF80CD0F1
:1000F00000F0DEFB004800470D3E000850080020DD
:100100000648804706480047FEE7FEE7FEE7FEE7B1
:10011000FEE7FEE7FEE7FEE7FEE7FEE7192A000836
:10012000ED000008A0F14101192900D820307047E6
:1001300040EA01039B0703D009E008C9121F08C069
:10014000042AFAD203E011F8013B00F8013B521EE9
:10015000F9D27047D2B201E000F8012B491EFBD260
:1001600070470022F6E710B513460A4604461946C2
:10017000FFF7F0FF204610BD421E12F8013F002B92
:10018000FBD111F8013B02F8013B002BF9D170477C
:1001900030B505462A460B4612F8010B13F8014B01
:1001A00008B1A042F8D01CB1002802D06D1CF1E7C4
:1001B000284630BDCAB2401E10F8011F8A4202D044
:1001C0000029F9D100207047421C10F8011B0029BA
:1001D000FBD1801A704710B5044600E0401C03783C
:1001E000002BFBD100E0401C521E04D311F8013B50
:1001F0000370002BF7D100210170204610BD03468B
:1002000011F8012B00F8012B002AF9D1184670478C
:1002100030B505460020034600E05B1C934205D242
:10022000EC5CC85C201A01D1002CF6D130BD2DE960
:10023000FE4F804681EA0300C00F0C46009021F07B
:10024000004123F00045B8EB0200A94105D2404629
:10025000214690461C460B46024623F000401043C0
:1002600047D0270DC7F30A00C3F30A510290401A82
:10027000019040286BDAC3F3130040F4801B009810
:10028000924620B10023D2EB030A63EB0B0B0198DB
:100290005946C0F14002504600F015FA06460D4698
:1002A00050465946019A00F02DFA10EB08006141C2
:1002B000002487EA115284EAE7731A4340D0009A77
:1002C00062B3019A012A4FEA075215DC001B61EB69
:1002D00002014FF0004202EA0752CDE90042001C41
:1002E00041F5801132462B4600F064FA03B0BDE8B8
:1002F000F08F40462146F9E7001B61EB0201001C2C
:1003000041F5801300185B412018A2F5001747EB58
:10031000030140EAD570B6196D4111E06D084FEA4E
:10032000360645EAC0754FEA0752001B61EB020131
:10033000001C41F5801149084FEA30000019514175
:1003400032462B4603B0BDE8F04F00F024BA0098C7
:10035000012240000023D0EB020263EBE07300981F
:1003600021464FEAE074B8EB000061EB0401E9E7D5
:1003700083F000435BE781F0004158E72DE9FE4F31
:1003800081EA030404F0004421F0004100944FF09E
:10039000000B23F0004350EA01045ED052EA03044C
:1003A0005BD0C3F30A54C1F30A552C44A4F2F334CE
:1003B0000194A0FB0254C1F3130141F48011C3F373
:1003C000130343F4801301FB024400FB034E840A31
:1003D000970A44EA815447EA8357A4FB07680295C9
:1003E0008D0A05FB07854FEA932C04FB0C54270567
:1003F000029D4FEA065847EA1637B5EB08056EEB43
:10040000070C870E920E47EA811742EA8312A7FB78
:100410000201B6EB0B0164EB00042B0D43EA0C3335
:100420005E1844EB1C50DA465146E7FB0201C5F367
:1004300013044FEA0B3343EA14534FEA0432019C8E
:1004400043EA0603A4F10C040294009CCDE900B435
:1004500000F0B0F903B0BDE8F08F00200146F9E7E5
:100460002DE9F04D81EA030404F0004B21F0004532
:1004700014464FF0000A23F0004150EA050220D054
:1004800054EA01021DD0C5F30A570246C5F313030F
:10049000C1F31300C1F30A5640F4801543F48013EE
:1004A000A7EB0608101BD64608F2FD3873EB0500D3
:1004B00002D308F1010801E092185B41B8F1000F86
:1004C00003DA00200146BDE8F08D00204FF48011D2
:1004D000064684460EE0171B73EB050705D3121B77
:1004E00063EB050306434CEA010C49084FEA300070
:1004F00092185B4150EA0107EDD152EA030012D095
:1005000082EA040083EA0501084305D0101BAB41D1
:1005100006D20122002306E000224FF0004302E051
:100520006FF0010253101AEB06004CEB085110EB70
:100530000A0041EB0B01BDE8F04D00F02CB9962309
:100540000022114600F0F9B80EB5C10F80EAE07044
:100550000844CA07002140F233438DE80E000A46E2
:100560000B4600F027F903B000BD70B5C1F30A5285
:1005700001F000450024C1F3130140F2FF3341F4C0
:1005800080119A4201DA002070BD40F233439A4252
:10059000A2F2334203DC524200F0A4F800E09040A3
:1005A0002C43F1D0404270BD00F0004230F00040DA
:1005B0000AD0C10D01F56071C0F3160042EA015185
:1005C000C2084007114370470020014670470000F1
:1005D00030B5041E71F1000404DB4FF000444042CA
:1005E00064EB0101141E73F1000405DB1C464FF09F
:1005F0000043524263EB0403994208BF904230BD6E
:1006000001F0004330B421F0004150EA010206D06D
:100610000A0DA2F56072C1F31301002A02DC30BC9E
:1006200000207047440F44EAC104C100E01830BC08
:1006300000EBC25000F078B830B50B460146002000
:100640002022012409E021FA02F59D4205D303FA94
:1006500002F5491B04FA02F52844151EA2F1010215
:10066000F1DC30BD2DE9F05F0546002092469B4647
:1006700088460646814640241BE0284641464746B8
:10068000224600F02FF853465A46C01A914110D323
:1006900011461846224600F016F82D1A67EB01089D
:1006A0004F4622460120002100F00DF817EB00090B
:1006B0004E41201EA4F10104DFDC484631462A46A3
:1006C0004346BDE8F09F202A04DB203A00FA02F1FD
:1006D000002070479140C2F1200320FA03F3194330
:1006E00090407047202A04DB203A21FA02F00021D2
:1006F000704721FA02F3D040C2F120029140084332
:1007000019467047202A06DBCB17203A41FA02F03F
:1007100043EAE07306E041FA02F3D040C2F120025E
:1007200091400843194670470029A8BF7047401CF4
:10073000490008BF20F00100704710B4B0FA80FCF7
:1007400000FA0CF050EA010404BF10BC704749B134
:10075000CCF1200421FA04F411FA0CF118BF0121A4
:1007600021430843A3EB0C01CB1D4FEA00614FEA84
:10077000102042BF002010BC704700EBC350104453
:100780000029A4BF10BC7047401C490008BF20F0DE
:10079000010010BC704710B5141E73F1000408DA94
:1007A000401C41F1000192185B411A4301D120F035
:1007B000010010BD2DE9F04D92469B4611B1B1FAF2
:1007C00081F202E0B0FA80F220329046FFF77BFF20
:1007D00004460F4640EA0A0041EA0B0153465A46D6
:1007E000084313D0114653EA010019D0C8F1400262
:1007F0005046FFF777FF05460E465046594642469B
:10080000FFF761FF084305D0012004E02046394688
:10081000BDE8F08D0020054346EAE0762C433743DF
:100820000A986305E40AA0EB08000022FD0A44EAE6
:1008300047540A3002D500200146E9E701051019A6
:100840006941DDE9084500196941BDE8F04DA2E7BD
:1008500070B521F0004303430CD0C1F30A550024C6
:10086000D5EB040564EB0403D617AD1AB34102DBE4
:100870000020014670BD201841EB025170BDC1F34C
:100880000A52C1F3130140F2FF3341F480119A423E
:1008900002DA00200146704740F233439A42A2F246
:1008A000334202DC5242FFF71DBFFFF70CBF0000CE
:1008B000064C074D06E0E06840F0010394E80700AD
:1008C00098471034AC42F6D3FFF714FC605300088D
:1008D000805300082DE9F04D00231A461B1A8A4167
:1008E00003DB00200146BDE8F08DC1F30A52C1F3DD
:1008F000130141F480154FF0000BD10702D100180D
:100900006D41521E0027044640F2FF11384601EBAC
:10091000620A3E468046024600204FF48011FFF7EF
:10092000E1FEC2197141BB1846EB0100B4EB030CA8
:1009300075EB000C04D3E41A65EB000517460E4670
:10094000241908F101006D4180463428E3DDF919CE
:1009500046EB0600091BA84103D24FF0FF321346B5
:1009600001E0002213461BEB070046EB0A51BDE8ED
:10097000F04DFFF710BF000000B585B0012148021F
:1009800001F034FF4FF4004001F004FF234800F071
:1009900067F80020009001208DF804008DF8050014
:1009A0004FF4602002900020039002208DF8100088
:1009B00069461A4800F096F80723012210211748CB
:1009C00000F0B8F8072302221121144800F0B2F811
:1009D000012000F021F90121104800F036F8012132
:1009E0000E4800F027F80D4800F000F900BF0B4852
:1009F00000F06EF80028FAD1084800F007F900BFAF
:100A0000064800F05BF80028FAD10121034800F005
:100A1000F2F803A002F044FB05B000BD0024014041
:100A200041444331B3F5CABCBBAFB3C9B9A6A3A116
:100A30000A00000021B1826842F00102826003E0F6
:100A4000826822F001028260704721B1826842F41C
:100A50008072826003E0826822F480728260704754
:100A600010B504461248844208D10121401501F016
:100A7000CDFE0021601501F0C9FE17E00D4884424B
:100A800008D10121001501F0C1FE0021201501F05F
:100A9000BDFE0BE00848844208D10121C80301F0E3
:100AA000B5FE00214FF4004001F0B0FE10BD000083
:100AB0000024014000280140003C01400146002084
:100AC0008A6802F004020AB1012000E000207047A9
:100AD000014600208A6802F008020AB1012000E005
:100AE0000020704730B502460020002350680F4CAC
:100AF00020400D790C6844EA05242043506090683A
:100B00000B4C2040D1E902542C434D7944EA450472
:100B100020439060D06A20F470000C7C641EE4B224
:100B2000234340EA0350D06230BD0000FFFEF0FFD7
:100B3000FDF7F1FFF0B504460D4600200021092D18
:100B400011DDE068A5F10A0606EB4607072606FA5E
:100B500007F18843A5F10A0606EB460603FA06F1FB
:100B60000843E0600CE0206905EB4507072606FA1C
:100B700007F1884305EB450603FA06F108432061B7
:100B8000072A0FDA606B561E06EB86071F2606FA49
:100B900007F18843561E06EB860605FA06F1084360
:100BA000606322E00D2A0FDA206BD61F06EB860762
:100BB0001F2606FA07F18843D61F06EB860605FABC
:100BC00006F10843206310E0E06AA2F10D0606EB8F
:100BD00086071F2606FA07F18843A2F10D0606EBE9
:100BE000860605FA06F10843E062F0BD816841F02F
:100BF00008018160704721B1826842F4A0028260DE
:100C000003E0826822F4A00282607047816841F0AC
:100C1000040181607047000030B10749096841F460
:100C20000001054A116005E00349096821F400014B
:100C3000014A1160704700000824014000BFFEE730
:100C400070B5002500BF1FE000BF4FF48051104871
:100C500000F06BFB0028F8D01E2003F04DF8600672
:100C6000040E4FF480510A4800F05FFB012801D1C7
:100C700044F0010400BF4FF48051054800F055FBDB
:100C80000128F8D0681CC5B2082DDDDB204670BDF8
:100C9000000C01402DE9F84F00F080F84FF480512E
:100CA000264800F04DFB4FF48051244800F03DFBF6
:100CB000C8BB00BF4FF48051204800F036FB00282D
:100CC000F8D000BF4FF480511C4800F02EFB0128E3
:100CD000F8D0FFF7B5FF0446FFF7B2FF0546FFF770
:100CE000AFFF0646FFF7ACFF0746FFF7A9FF0090EE
:100CF0004FF48051114800F021FB372002F0FCFF37
:100D00004FF480510D4800F01BFB60193044C119AD
:100D10000098814207D104F0FF0805F0FF0906F0B2
:100D2000FF0A07F0FF0B064880F8008080F801906A
:100D300080F802A080F803B0BDE8F88F000C0140F5
:100D40000200002008B50121082001F04FFD4FF4FA
:100D50008050ADF8000004208DF8030003208DF8CA
:100D600002006946014800F055FA08BD000C014038
:100D700008B50121082001F039FD4FF48050ADF88D
:100D8000000010208DF8030003208DF80200694652
:100D9000014800F03FFA08BD000C014010B5FFF714
:100DA000E7FF4FF480510C4800F0CAFA1E2002F011
:100DB000A3FF4FF48051084800F0C0FA142002F05D
:100DC0007FFF4FF48051044800F0BAFA1E2002F071
:100DD00093FFFFF7B7FF10BD000C014021B102687F
:100DE00042F00102026004E002684FF6FE731A400E
:100DF0000260704701684FF6FE72114001600021E9
:100E0000016041608160C1604B49884208D14A4914
:100E10000839496841F00F01474A083A51608AE0B1
:100E200045491431884208D143490839496841F09D
:100E3000F001414A083A51607DE03F49283188423B
:100E400008D13D490839496841F470613A4A083A85
:100E5000516070E038493C31884208D13649083940
:100E6000496841F47041344A083A516063E03249BC
:100E70005031884208D130490839496841F470211D
:100E80002D4A083A516056E02B496431884208D116
:100E900029490839496841F47001274A083A5160E4
:100EA00049E025497831884208D123490839496801
:100EB00041F07061204A083A51603CE01F49884285
:100EC00006D1011F096841F00F01021F116032E0D5
:100ED0001A491431884208D11849091F096841F09C
:100EE000F001164A121F116025E01449283188428A
:100EF00008D11249091F096841F470610F4A121F95
:100F0000116018E00D493C31884208D10B49091F96
:100F1000096841F47041094A121F11600BE007494A
:100F20005031884207D10549091F096841F47021F1
:100F3000024A121F11607047080002400804024074
:100F400010B50022026847F6F0739A430C6A8B686A
:100F500023430C6923434C6923438C692343CC69A5
:100F600023434C6A23438C6A23431A430260CB68B1
:100F700043600B6883604B68C36010BD416070477D
:100F80007047000010B54FF400710348FFF7E9F80F
:100F900000200249088010BD5000002006000020FB
:100FA00070B50546002400BF00F01AF980B90DA104
:100FB0000E48FFF7EDF8044654B13A212046FFF7FA
:100FC000F9F8044614B1641C204670BD0020FCE70B
:100FD000052002F075FE281EA5F101018DB2E3D1B6
:100FE00000BFF2E74950442C0000000050000020F0
:100FF00008B50121042001F0F9FB0220ADF8000042
:1010000010208DF8030003208DF802006946244863
:1010100000F000F90221224800F092F94FF4FA7032
:1010200002F04EFEFFF7AEFF1EA002F039F803E01B
:101030004FF4FA7002F044FE1CA11DA000F082F8EB
:101040000028F5D11CA002F02BF803E04FF4FA7051
:1010500002F036FE15A11BA000F074F80028F5D1AF
:101060001CA002F01DF803E04FF4FA7002F028FE15
:101070000EA11CA000F066F80028F5D11DA002F01A
:101080000FF803E04FF4FA7002F01AFE1CA11EA044
:1010900000F058F80028F5D123A002F001F808BDAF
:1010A00000080140312E2041540D0A004F4B000032
:1010B00041540D0A00000000322E2043574D4F448A
:1010C000450D0A0041542B43574D4F44453D310DCA
:1010D0000A000000332E2041542B4357444843500C
:1010E0000D0A000041542B4357444843503D312CD6
:1010F000310D0A000A342E2043574A41500D0A0090
:10110000474F54204950000041542B43574A415007
:101110003D2230303939222C22717A62717A627123
:101120007A62220D0A000000352E204553503832D5
:101130003636B3F5CABCBBAFCDEAB3C9A3A10D0A1D
:10114000000000002DE9F04104460D46C826204667
:10115000FFF73AF887B23A4621460D4801F087FF7B
:101160000FE000F03DF848B929460A48FFF710F8AB
:1011700020B1FFF707FF0020BDE8F0810A2002F050
:101180009FFD301EA6F10101CEB2EAD10120F3E7A6
:10119000003801405000002030B589B004460D46AB
:1011A000FFF7F0FE2A4608A101A801F0A1FF0AA15D
:1011B00001A8FFF7C7FF20B92A462146074801F0DA
:1011C00056FF09B030BD000041542B4349505345F0
:1011D0004E443D25640D0A003E00000000380140E9
:1011E0000A48008808B90120704708480088084963
:1011F0000988884203D1002004490880F4E70348A5
:101200000088034908800120EEE700000600002066
:10121000080000202DE9F0410246002500260020AC
:1012200000230024002791F803C00CF00F0591F86B
:1012300003C00CF0100CBCF1000F03D091F802C0F9
:101240004CEA050591F800C0BCF1000F31D01468DC
:1012500000202BE04FF0010C0CFA00F3B1F800C0B5
:101260000CEA03069E4220D183004FF00F0C0CFACB
:1012700003F7BC4305FA03FC4CEA040491F803C0ED
:10128000BCF1280F06D14FF0010C0CFA00FCC2F89B
:1012900014C00AE091F803C0BCF1480F05D14FF02B
:1012A000010C0CFA00FCC2F810C0401C0828D1D375
:1012B0001460B1F800C0BCF1FF0F34DD54680020A9
:1012C0002EE000F1080C4FF0010808FA0CF3B1F819
:1012D00000C00CEA03069E4221D183004FF00F0CA0
:1012E0000CFA03F7BC4305FA03FC4CEA040491F83A
:1012F00003C0BCF1280F05D100F1080C08FA0CF866
:10130000C2F8148091F803C0BCF1480F07D100F176
:10131000080C4FF0010808FA0CF8C2F81080401CC5
:101320000828CED35460BDE8F081024600209368BF
:101330000B400BB1012000E0002070474161704775
:10134000016170470AB1016100E04161704700002E
:101350002DE9FF5F4FF00009C8460BE034480088D4
:1013600048441FFA80F93C2002F0C6FC08F1010055
:1013700000F0FF08B8F1140FF0DB142099FBF0FA2D
:101380005046FFF7DCF88346FFF70EF902460B469E
:10139000CDE9020127A001F083FE5046FFF7CFF808
:1013A0008346FFF701F90022274BCDE90001FFF743
:1013B00057F84FF03332254BCDE90201FEF7DEFF3F
:1013C00006460F4630463946FFF71AF98346FFF7BF
:1013D000EBF802460B46CDE902011DA001F060FECC
:1013E00032463B461E481F49FEF7C2FF1E4A1F4BAE
:1013F000CDE90001FFF734F800221D4BCDE90201D1
:10140000FEF715FF04460D4620462946FFF7F8F87B
:101410008346FFF7C9F802460B46CDE9020115A045
:1014200001F03EFE2046294604B0BDE8F09F0000D2
:10143000340000200A414443B2C9BCAFCAFDD6B54E
:10144000A3BA252E32660A00008497403333F33F57
:10145000D0A3D7BCB5E7D1B9A3BA252E32660A000E
:10146000E17A14AE47E1F63F22FDF675E09C713F4C
:1014700000003940D0BEC6ACCEC2B6C8A3BA252E35
:1014800032660A0000BFFEE708B50121102001F016
:10149000ADF910208DF803004002ADF800000320E4
:1014A0008DF8020069460348FFF7B4FE002000F003
:1014B00003F808BD0010014010B5044684F0010295
:1014C0004FF400510248FFF73DFF0248047010BD81
:1014D000001001400A00002010B50446207B0128BE
:1014E00002D1206802F06AFC002020606060A060E9
:1014F000207310BD0246002301230DE002F07F009F
:101500000870D2092AB1087840F080000870491CA0
:1015100001E0184670475B1C042BEFDD4FF0FF30F5
:10152000F8E770B504460E460025206898B90120FA
:101530002073304602F062FD20602068E0B1002098
:101540006060A66003E00020216848556D1CA0681B
:10155000A842F8D810E00220207303E000202168A0
:1015600048556D1CA068A842F8D800206060A068AB
:10157000B04201D20020206070BD00002DE9FF4F75
:1015800083B082468B469146159C00250020029030
:101590000F2701904846FEF717FE0FFA80F8B9F1C1
:1015A000000F03D1012007B0BDE8F08F08F1020061
:1015B000384487B2109808B145F00205129878B106
:1015C00045F004051298FEF7FFFDC0B20290139893
:1015D000FEF7FAFD01460298001D0844384487B220
:1015E000119820B1012804D0022808D104E000BFDE
:1015F00007E045F00C0504E045F0140501E0022089
:10160000D1E700BF149808B145F02405BAF1000FE6
:1016100002D0BBF1000F01D10320C4E745F0C005A3
:101620005046FEF7D1FD06465846FEF7CDFD304444
:10163000001D384487B239462046FFF772FF206804
:1016400008B90420AFE739462068FEF78AFD10216B
:101650006268501C606020688154D4E90023D1186E
:10166000781FFFF747FF00B201900198002804DAC5
:101670002046FFF731FF052095E76168019808448F
:10168000606000216268501C606020688154042101
:101690006268501C6060206881544D216268501C53
:1016A00060602068815451216268501C606020682D
:1016B000815454216268501C6060206881546268C3
:1016C000501C60602068815404216268501C606076
:1016D000206881546168481C606020684554069801
:1016E000010A6268501C6060206881540698C1B28B
:1016F0006268501C606020688154C8F307216268EA
:10170000501C6060206881546268501C60602068D2
:1017100000F80280D4E90012881842464946FEF7D4
:101720005AFD60684044606005F00400B8B30026CC
:10173000139808B938A013901298FEF745FD86B2A9
:10174000310A6268501C6060206881546268501CD5
:10175000606020688654D4E90012881832461299D5
:10176000FEF739FD6068304460601398FEF72CFD89
:1017700086B2310A6268501C6060206881546268D9
:10178000501C606020688654D4E9001288183246E4
:101790001399FEF720FD60683044606000BF05F0DB
:1017A0008000C8B15046FEF70FFD86B2310A62686C
:1017B000501C6060206881546268501C6060206822
:1017C0008654D4E90012881832465146FEF703FDCC
:1017D00060683044606000BF05F04000C8B1584602
:1017E000FEF7F2FC86B2310A6268501C6060206825
:1017F00081546268501C606020688654D4E90012ED
:10180000881832465946FEF7E6FC6068304460604E
:1018100000BF0020C7E600000000000010B504462D
:1018200002212046FFF77DFE206808B9012010BD87
:10183000C0216268501C6060206881540021626889
:10184000501C6060206881540020F0E72DE9FF4FB4
:1018500083B0834617469946139C00250026002036
:10186000029001908046BBF1000F03D1012007B028
:10187000BDE8F08F00260AE00498805D232803D09D
:101880000498805D2B2801D10220F0E7761C049893
:10189000805D0028F0D148F03008119808B148F078
:1018A000010806EB0900851C109820B1012804D01E
:1018B00002280AD105E000BF09E048F00208AD1C8B
:1018C00005E048F00408AD1C01E00320CFE700BFAD
:1018D0008FB33878022821D14FF0000A00BF50465C
:1018E0000AF1010A385C7D28F9D1AAF1030A0AF14C
:1018F000070002900298A9EB000AE81CA0EB0A017D
:101900002046FFF70EFE206808B90420AFE7EA1C66
:10191000A2EB0A012068FEF724FC19E0691D2046AD
:10192000FFF7FFFD206808B90420A0E7691D2068C3
:10193000FEF717FC0CE0FFE7691D2046FFF7F1FDFD
:10194000206808B9042092E7691D2068FEF709FCA9
:101950006168481C6060206800F80180D4E90002DA
:1019600081182846FFF7C6FD01900198002804DA87
:101970002046FFF7B1FD052079E76168019808442A
:101980006060C6F307216268501C60602068815463
:101990006268501C606020688654D4E90012881880
:1019A00032460499FEF717FC606830446060109876
:1019B00060B14FEA1B216268501C6060206881544E
:1019C0006268501C6060206800F802B0C7B13878C7
:1019D00002280BD1D4E9001288183946029AFEF782
:1019E000A7FB616802980844606009E0D4E900122E
:1019F00088184A463946FEF79BFB60684844606099
:101A0000002034E72DE9F04190B004460D4616461B
:101A10009846169F23460CA2302104A8009501F099
:101A20004FFB01200021CDE9000133460A4604A9FD
:101A3000CDE902070A20FFF709FF18B1012010B015
:101A4000BDE8F0810020FAE7247379732F25732F06
:101A500025732F7468696E672F70726F706572746A
:101A6000792F706F737400002DE9FF5F8046174671
:101A700099460E9C0026B246B3460025B8F1000FE9
:101A800003D1012004B0BDE8F09F0BE057F825001A
:101A900008B90220F6E757F82500FEF795FB064443
:101AA000681CC5B24D45F1DB09EB4900801C00EB19
:101AB000060A0AF105012046FFF733FD206808B940
:101AC0000320DFE782216268501C60602068815437
:101AD000D4E9000281185046FFF70CFD0FFA80FB95
:101AE000BBF1000F04DA2046FFF7F6FC0420C9E73B
:101AF0006068584460604FEA18216268501C60605A
:101B0000206881546268501C6060206800F8028080
:101B1000002524E057F82500FEF756FB0646C6F3DD
:101B200007216268501C6060206881546268501C04
:101B3000606020688654D4E90023D01857F8251037
:101B40003246FEF748FB6068304460600198C1B2DD
:101B50006268501C606020688154681CC5B24D45A5
:101B6000D8DB00208EE700001FB500200090019018
:101B7000029003906846FFF751FE002845D1019A74
:101B800091B20098FFF708FB20A001F089FA68469F
:101B9000FFF7A2FC6420FFF703FA0446002C34D0C0
:101BA000204600F0AFFC204600F0B6F90D2805D124
:101BB000FFF7E8F91AA001F073FA26E01BA001F084
:101BC0006FFA1DA001F06CFAFFF712FA1FA001F0E6
:101BD00067FA03E04FF4FA7002F072F822A124A031
:101BE000FFF7B0FA0028F5D12DA001F059FA03E073
:101BF0004FF4FA7002F064F800F0C0FA0028F7D150
:101C000000F070FA2DA001F04BFA1FBDB7A2CBCDAA
:101C1000B3F6D0C4CCF8B0FCA3A10D0A00000000BC
:101C200050696E67B3C9B9A60D0A000050696E67A6
:101C3000CAA7B0DC0D0A0000D6D8D0C2B3F5CABC22
:101C4000BBAF455350383236360D0A00C1ACBDD358
:101C50004F6E656E6574B7FECEF1C6F7D6D02E2EE8
:101C60002E2E2E2E0D0A0000434F4E4E454354009B
:101C700041542B43495053544152543D22544350F4
:101C8000222C226D717474732E6865636C6F756499
:101C9000732E636F6D222C313838330D0A0000002B
:101CA000C1ACBDD34F6E656E6574B7FECEF1C6F79D
:101CB000B3C9B9A6A3A10D0A00000000D6D8D0C2AE
:101CC000C1ACBDD34F6E656E6574B3C9B9A60D0ABC
:101CD00000000000F0B504460D4626460123002012
:101CE0001060002114E0775C07F07F07106807FBA5
:101CF00003001060705C00F0800008B9481CF0BD63
:101D0000DB01B3F5001F02D36FF00100F7E7491CB8
:101D1000A942E8DB4FF0FF30F1E70146487802289E
:101D200001D001207047887810B18878012801D14E
:101D3000C878F7E7FF20F5E72DE9FC5F81460D46FF
:101D400014461E46DDE90C8B99F8000000F00F0ADE
:101D5000002001900AF008000090CAF341008BF8BF
:101D6000000001AA042109F10100FFF7B3FF484474
:101D7000471C0198022802D30AF0010010B1FF208D
:101D8000BDE8FC9F7878397840EA012020802088DF
:101D9000801C0199884201D9FF20F1E754A1B81CA9
:101DA000FEF7F6F908B10F20EAE79BF8000020B132
:101DB00001283DD0022877D13BE0009808B1FF20F0
:101DC000DEE72188481C02F019F92860286808B964
:101DD000FF20D5E72288511C2868FEF7C2F9228827
:101DE000B91C2868FEF7A4F90198801E2188401AC2
:101DF000A8F80000B8F80010481C02F0FFF83060A6
:101E0000306820B9286801F0D9FFFF20B8E7B8F89A
:101E10000020511C3068FEF7A4F9B8F80020B4F88F
:101E200000C0BB1C0CEB03013068FEF781F94FE0EA
:101E300000BF2088801C0199884201D9FF209FE7BC
:101E40002088C01C395C2088801C385C41EA002155
:101E50000E9801800E9808B9FF2091E72188481C50
:101E600002F0CCF82860286808B9FF2088E72288AB
:101E7000511C2868FEF775F92288B91C2868FEF7FE
:101E800057F90198001F2188401AA8F80000B8F8F7
:101E90000010481C02F0B2F83060306828B9286899
:101EA00001F08CFFFF206BE710E0B8F80020511C18
:101EB0003068FEF756F9B8F80020B4F800C03B1DB2
:101EC0000CEB03013068FEF733F901E0FF2057E720
:101ED00000BF2B212846FEF76DF920B923212846A3
:101EE000FEF768F908B1FF204AE7002048E7000044
:101EF000246372657100000001464878022801D011
:101F000001207047887820B9C8780A2801D10020BC
:101F1000F7E70120F5E70000F8B50446FF27207831
:101F20000511012D01DB0E2D01DD3846F8BD032D15
:101F300024D1002000906A460421601CFFF7CAFEED
:101F40002044461C0098022803D3207800F00100AA
:101F500008B1FF20EAE77078317840EA0120801C60
:101F60000099884201D9FF20E0E706A1B01CFEF7E6
:101F70000FF908B10F2700E0032700E02F4638468D
:101F8000D4E7000024637265710000000146FF2061
:101F90008A78A2B9CA78142A11D10A7932B1012AF1
:101FA00005D0022A04D0802A06D103E000BF00BF7A
:101FB000002003E0012001E0022000BF00BF7047C5
:101FC000F0B58BB007460D4616461C460121084663
:101FD00000F0ECFB3846FEF70DFF0E48048000953C
:101FE0000196002002900394049080200590400008
:101FF00006908000079020200890000209900020A1
:102000000A9069463846FEF79BFF03A001F048F8A6
:102010000BB0F0BD00000020444D41315F436861CA
:102020006E6E656C31B3F5CABCBBAFB3C9B9A6A3BC
:10203000A10A000010B5044600212046FEF7CEFE9E
:10204000044801882046FEF799FF01212046FEF74B
:10205000C5FE10BD0000002000BFFEE77047000075
:1020600070B5002100230F22C47804B3154C2468F6
:1020700004F4E064C4F5E064210AC1F10403CA4039
:10208000447804FA03F184781440214309010E4C8A
:102090000678A155047804F01F050124AC400578AA
:1020A0006D11AD0005F1E025C5F8004109E00478A7
:1020B00004F01F050124AC40044D0678761145F864
:1020C000264070BD0CED00E000E400E080E100E09F
:1020D00002490143024A1160704700000000FA05FE
:1020E0000CED00E000B595B0002011901290139017
:1020F000149003A802900FA010A313A238210090FF
:1021000003A800F0DDFF03A917A000F0C9FF11A884
:10211000012302AA002100901420FFF7A5FC38B982
:10212000129A91B21198FFF737F811A8FFF7D4F976
:1021300015B000BD54656D4E48756D003469585238
:10214000325A493454630000247379732F25732F56
:1021500025732F7468696E672F70726F7065727463
:10216000792F736574000000B6A9D4C4B5C4546F48
:102170007069633A2025730D0A00000030B58BB0FA
:1021800000200790089009900A900125304B31A259
:1021900033A1354800F084FF07A800210291039184
:1021A000CDE90410084601210B022DA2CDE9001053
:1021B000274928A0FFF7E2F9002842D1089A91B2F6
:1021C0000798FEF7E9FF29A000F06AFF41F2883086
:1021D000FEF7E6FE04462BA000F062FF002C2CD098
:1021E0002046FFF799FE022827D12046FFF795FDEC
:1021F00006281DD2DFE800F003080C10141826A0F2
:1022000000F04EFF002517E028A000F049FF13E082
:102210002DA000F045FF0FE034A000F041FF0BE0DF
:102220003AA000F03DFF07E041A000F039FF03E0D5
:102230004AA000F035FF00BF00BF07A8FFF74CF928
:1022400002E04DA000F02CFF28460BB030BD00008E
:10225000E052000834695852325A4934546300003D
:1022600054656D4E48756D0094520008B5C8B4FDB4
:10227000C6BDCCA8CFECD3A62E2E2E2E2E2E0D0A08
:1022800000000000C6BDCCA8CFECD3A6CDEAB1CFEC
:10229000A3A10D0A00000000546970733A09C1AC93
:1022A000BDD3B3C9B9A60D0A000000005741524E74
:1022B0003A09C1ACBDD3CAA7B0DCA3BAD0ADD2E94C
:1022C000B4EDCEF30D0A00005741524E3A09C1ACAD
:1022D000BDD3CAA7B0DCA3BAB7C7B7A8B5C4636CEF
:1022E00069656E7469640D0A000000005741524E22
:1022F0003A09C1ACBDD3CAA7B0DCA3BAB7FECEF1D0
:10230000C6F7CAA7B0DC0D0A000000005741524EC4
:102310003A09C1ACBDD3CAA7B0DCA3BAD3C3BBA72B
:10232000C3FBBBF2C3DCC2EBB4EDCEF30D0A00007D
:102330005741524E3A09C1ACBDD3CAA7B0DCA3BACB
:10234000B7C7B7A8C1B4BDD328B1C8C8E7746F6B0D
:10235000656EB7C7B7A8290D0A0000004552523A6A
:1023600009C1ACBDD3CAA7B0DCA3BACEB4D6AAB457
:10237000EDCEF30D0A0000005741524E3A094D517F
:1023800054545F5061636B6574436F6E6E65637424
:10239000204661696C65640D0A00000070B590B05C
:1023A000044640216846FDF7DCFE28A12046FDF7E3
:1023B00026FF40216846FDF7D4FE2A4882782AA1EC
:1023C000684600F095FE69462046FDF7D5FE40219F
:1023D0006846FDF7C6FE234802782AA1684600F049
:1023E00087FE69462046FDF7C7FE40216846FDF797
:1023F000B8FEFEF7ADFF05462A460B4628A1684603
:1024000000F076FE69462046FDF7B6FE402168469C
:10241000FDF7A7FE2A48007808B12AA000E02BA00B
:1024200002462CA1684600F063FE69462046FDF78F
:10243000A3FE2DA12046FDF79FFE2CA000F030FE4C
:102440002046FDF7C1FEC0B210B070BD7B226964AA
:10245000223A22353136222C22706172616D73224C
:102460003A7B0000020000202254656D70657261A5
:1024700074757265223A7B2276616C7565223A2505
:10248000647D2C002248756D6964697479223A7BF9
:102490002276616C7565223A25647D2C000000006F
:1024A000224368697054656D706572223A7B2276AA
:1024B000616C7565223A252E32667D2C0000000085
:1024C0000A000020747275650000000066616C737C
:1024D00065000000224C4544223A7B2276616C75EF
:1024E00065223A25737D00007D7D00004F6E6E658C
:1024F00074CAFDBEDDB7E2B0FCCDEAB3C9A3A10D3D
:102500000A0000002DE9F04F89B00746002008902E
:10251000079006900590049000250026804681468D
:102520003846FFF7F9FC0546032D04D0042D39D0B9
:10253000092D4BD13EE0304804A905AA08ABCDE9EE
:102540000021029006AA07A93846FFF7F5FB0646C8
:102550003EBB4FF0000ABDF814000090BDF81820F3
:102560002648DDE9071300F09BFD089801F02AFBDF
:10257000834623A1584601F005FB039022A103984E
:1025800001F000FB044644B1E068012802D1FEF7E7
:1025900093FF02E00020FEF78FFF584601F0C6FAD5
:1025A00000BF00BF3846FFF7A7FC10B917A000F026
:1025B00077FD0EE03846FFF7E9FC18B91BA000F0E4
:1025C0006FFD02E020A000F06BFD02E04FF0FF364F
:1025D00000BF00BF701C10B909B0BDE8F08F0F2D0F
:1025E00001D0032D05D1079801F0E8FB089801F010
:1025F000E5FB00BFF0E700000E000020505200088D
:10260000706172616D7300004C45440054697073D1
:102610003A094D515454205075626C6973682053C7
:10262000656E64204F4B0D0A000000005469707302
:102630003A094D515454205375627363726962654F
:10264000204F4B0D0A000000546970733A094D5138
:1026500054542053756273637269626520457272C7
:102660000D0A000030B5C5B0002041904290439063
:102670004490002400251FA000F012FD4FF480714B
:1026800001A8FDF76EFD21A000F00AFD01A8FFF7EB
:1026900085FE0446002C2BD041A80023224621A110
:1026A000009022A0FFF7AEF900281ED108E001A893
:1026B000415D429A501C429041988154681C05B279
:1026C000A542F4DB429A91B24198FEF765FD1AA04B
:1026D00000F0E6FC1DA0429900F0E2FC41A8FEF7E4
:1026E000FBFE1FA000F0DCFC02E021A000F0D8FC03
:1026F00045B030BD4F6E6E6574CAFDBEDDB7A2CB6E
:10270000CDD6D02E2E2E2E2E2E0D0A004F6E6E659B
:1027100074CAFDBEDDB7E2B0FCD6D02E2E2E2E2E12
:102720002E0D0A0054656D4E48756D00346958527F
:10273000325A493454630000B7A2CBCDB5BDC6BDF3
:10274000CCA8D6D02E2E2E2E2E2E0000B7A2CBCD6A
:10275000B3F6A3BA2025642042797465730D0A008C
:10276000B7A2CBCDC6BDCCA8CDEAB1CFA3A1000006
:102770005741524E3A094544505F4E65774275665F
:10278000666572204661696C65640D0A0000000090
:102790007047000001460020034A506820F4404082
:1027A00008435060704700000010024029B1064AFB
:1027B00052690243044B5A6104E0034A526982435E
:1027C000014B5A61704700000010024029B1064ACF
:1027D000D2690243044BDA6104E0034AD2698243BE
:1027E000014BDA61704700000010024029B1064A2F
:1027F00092690243044B9A6104E0034A926982435E
:10280000014B9A61704700000010024029B1064A4E
:10281000D2680243044BDA6004E0034AD268824380
:10282000014BDA60704700000010024030B5002113
:102830000022002400232D4D6D6805F00C0121B10C
:10284000042905D0082923D105E0294D056022E09F
:10285000274D05601FE0254D6D6805F47012234D6E
:102860006D6805F48034022505EB92421CB9214DB8
:10287000554305600BE01D4D6D6805F400351DB135
:102880001C4D5543056002E0194D5543056002E0BB
:10289000174D056000BF00BF144D6D6805F0F001D5
:1028A0000909154D6B5C0568DD4045600F4D6D688D
:1028B00005F4E061090A104D6B5C4568DD408560F8
:1028C0000A4D6D6805F46051C90A0B4D6B5C456893
:1028D000DD40C560054D6D6805F44041890B074D2D
:1028E0006B5CC568B5FBF3F5056130BD00100240B7
:1028F00000127A0000093D001C0000202C0000207E
:10290000704710B500F002F810BD00000CB50020B3
:10291000019000903348006840F4803031490860ED
:1029200000BF3048006800F4003000900198401C5F
:102930000190009818B90198B0F5A06FF1D129481D
:10294000006800F4003010B10120009001E0002088
:1029500000900098012843D12348006840F01000FF
:10296000214908600846006820F003000860084616
:10297000006840F0020008601A4840681949486041
:102980000846406848600846406840F480604860F7
:102990000846406820F47C1048600846406840F4CF
:1029A000E81048600846006840F08070086000BF8A
:1029B0000C48006800F000700028F9D00948406811
:1029C00020F00300074948600846406840F00200D4
:1029D000486000BF0348406800F00C000828F9D1A7
:1029E0000CBD00000010024000200240042808D165
:1029F0004FF0E021096941F004014FF0E02211613C
:102A000007E04FF0E021096921F004014FF0E022D6
:102A1000116170477047000010B51348006840F01E
:102A200001001149086008464068104908400E49F5
:102A30004860084600680E4908400B49086008468F
:102A4000006820F4802008600846406820F4FE00FA
:102A500048604FF41F008860FFF753FF4FF000609D
:102A60000449086010BD0000001002400000FFF89B
:102A7000FFFFF6FE08ED00E010B50121880700F029
:102A800090F880B30121880700F07CF816480078A0
:102A9000401C1549087015480078401C13490870FF
:102AA00013480078401C124908700F4800780F281E
:102AB00005D101200F49088000200B4908700B4800
:102AC0000078322805D101200B49088000200749F1
:102AD000087007480078192805D1012007490880A7
:102AE00000200349087010BD0B0000200C000020DE
:102AF0000D000020380000203A0000203C0000209B
:102B00001FB54FF0804000F066F801210846FFF73E
:102B10005DFE0020ADF80A00ADF8060041F28730F6
:102B2000ADF8080041F61F40ADF8040000208DF814
:102B30000C0001A94FF0804000F054F801218807F3
:102B400000F01DF801221146900700F03BF84FF409
:102B5000A060FFF7BDFA1C208DF8000001208DF861
:102B6000030002208DF8010001208DF80200684664
:102B7000FFF776FA0121880700F007F81FBDCA4366
:102B800002827047CA430282704721B1028842F034
:102B90000102028004E002884FF6FE731A400280B0
:102BA000704730B50246002000230024158A05EA4C
:102BB0000103958905EA010413B10CB1012000E07D
:102BC000002030BD1AB183890B43838102E08389E1
:102BD0008B438381704701894FF6F8721140018160
:102BE00070470000002202881D4B98420ED01D4BFA
:102BF00098420BD0B0F1804F08D01B4B984205D0C3
:102C00001A4B984202D01A4B984204D14FF68F7358
:102C10001A404B881A43174B984207D0164B9842DC
:102C200004D04FF6FF431A40CB881A4302808B88AA
:102C300083850B8803850A4B98420BD0094B984239
:102C400008D00E4B984205D00D4B984202D00D4B48
:102C5000984201D10B7A03860123838270470000DA
:102C6000002C0140003401400004004000080040F6
:102C7000000C0040001000400014004000400140E3
:102C8000004401400048014010B540F225510E4873
:102C900000F026F9B8B10D480088B0F5007F02D3E6
:102CA00000200A4908800848001D0088C1B2074872
:102CB00002880088401C054B18800548815420215B
:102CC000014800F0EBF810BD00380140060000207C
:102CD0005000002010B586B0044601210420FFF703
:102CE00085FD01218803FFF781FD4FF40070ADF8E9
:102CF000140018208DF8170003208DF8160005A980
:102D00002148FEF787FA4FF48060ADF814000420E4
:102D10008DF8170003208DF8160005A91A48FEF754
:102D200079FA01940020ADF810000C20ADF80E00E7
:102D30000020ADF80C00ADF80A00ADF8080001A9BC
:102D4000124800F01DF90121104800F0B0F80122EE
:102D500040F225510D4800F0EDF84FF4A060FFF768
:102D6000B7F925208DF8000001208DF8030002201E
:102D70008DF801008DF802006846FFF771F904A094
:102D800000F08EF906B010BD000801400038014087
:102D9000555341525431D2D1C1ACBDD3B3C9B9A6F8
:102DA000A3A10A0010B540F22551084800F098F898
:102DB00018B14021054800F071F8044800F04CF9C2
:102DC00004462146014800F04CF910BD0044004083
:102DD00010B586B0044601210420FFF707FD01214C
:102DE0004804FFF7F3FC0420ADF8140018208DF818
:102DF000170003208DF8160005A92148FEF70AFAEE
:102E00000820ADF8140004208DF8170003208DF879
:102E1000160005A91A48FEF7FDF901940020ADF847
:102E200010000C20ADF80E000020ADF80C00ADF83D
:102E30000A00ADF8080001A9124800F0A1F801212C
:102E4000104800F034F8012240F225510D4800F0FE
:102E500071F84FF4A060FFF73BF926208DF80000D1
:102E600001208DF8030003208DF801008DF8020089
:102E70006846FFF7F5F804A000F012F906B010BD9F
:102E80000008014000440040555341525432D2D111
:102E9000C1ACBDD3B3C9B9A6A3A10A0001F40072A5
:102EA000B2F5007F00D100BFCA430280704721B154
:102EB000828942F40052828104E082894DF6FF73D8
:102EC0001A408281704702460020B1F5007F00D190
:102ED00000BF13880B400BB1012000E000207047B9
:102EE00070B50246002400230025002040F66A1633
:102EF000B14200D100BFC1F3421501F01F0301260A
:102F000006FA03F3012D02D19689334006E0022D23
:102F100002D1168A334001E0968A33400C12012612
:102F200006FA04F41688344013B10CB1012000E015
:102F3000002070BDF0B503460024002600250020C7
:102F400040F66A17B94200D100BF1846C1F34214D7
:102F500001F01F06012707FA06F5012C01D10C30FC
:102F600004E0022C01D1103000E014301AB10768DF
:102F70002F43076002E00768AF430760F0BD000021
:102F80002DE9F04786B005460E460024A24600BF54
:102F9000A1460027B08900B100BF2F462C8A4CF60D
:102FA000FF700440F08804432C82AC894EF6F31085
:102FB0000440B08831890843718908430443AC81D7
:102FC000AC8A4FF6FF400440B0890443AC8201A8AC
:102FD000FFF72CFC1F48874202D1DDF810A001E06A
:102FE000DDF80CA0A88900F4004040B10AEBCA004B
:102FF00000EB0A1031684900B0FBF1F807E00AEB7A
:10300000CA0000EB0A1031688900B0FBF1F86420B7
:10301000B8FBF0F004012009642101FB1089A889A4
:1030200000F4004040B1322000EBC900B0FBF1F0E9
:1030300000F00700044308E0322000EB091064218F
:10304000B0FBF1F000F00F0004432C8106B0BDE8A6
:10305000F08700000038014001468888C0F308006E
:103060007047C1F308028280704700BFFEE72DE978
:10307000F04107460C46154600260DE014F8011BEA
:103080003846FFF7EEFF00BF40213846FFF71BFF31
:103090000028F9D0701C86B2AE42EFDBBDE8F081AB
:1030A0000FB4054B10B503A9044A029800F096F935
:1030B00010BC5DF814FB0000913D000840000020AA
:1030C0000FB41CB50246002007AC00290BD0491EE6
:1030D000CDE90021054B6A462146069800F07EF9AD
:1030E000009A002111701CBC5DF814FB0B3B00081A
:1030F0000FB4084B10B504A902AA039800F06EF9AA
:10310000044602A9002000F00BFD204610BC5DF82B
:1031100014FB0000213B0008490050EAC12018BF01
:1031200004204A0D18BF40F0010040F2FF72B2EBDC
:10313000515F08BF40F00200012808BF052070471A
:103140002DE9F0414F1E00EBC7010446D1E9000113
:1031500015461E4637F006020DD02A463346FDF7C7
:103160000DF97F1E04EBC703D3E90023FDF75FF8D9
:1031700037F00602F1D1022F25D0042F13D0062FED
:1031800018BFBDE8F0812A463346FDF7F7F8D4E9C9
:103190000A23FDF74CF82A463346FDF7EFF8D4E949
:1031A0000823FDF744F82A463346FDF7E7F8D4E94B
:1031B0000623FDF73CF82A463346FDF7DFF8D4E94D
:1031C0000423FDF734F82A463346FDF7D7F8D4E94F
:1031D0000223FDF72CF82A463346FDF7CFF8D4E951
:1031E0000023BDE8F041FDF722B80000002213469D
:1031F00010460149FDF734B90000F03FFDF717B85C
:103200000022134610461146FDF72AB940F201325A
:1032100000204FF0E041FDF71BBB0000024A0020F8
:103220001107FDF715BB000001FDFFFF02E008C814
:10323000121F08C1002AFAD170477047002001E030
:1032400001C1121F002AFBD170470000014908602C
:10325000704700004C0000202DE9FF5F82B0002184
:10326000DDE90430020DDDF840B0034318D044F628
:103270001050A2F2FF3242431514119801281FD0BA
:10328000A5EB0B00401C5FEA000A4FF000064E4F12
:10329000DFF83891B046504615D5CAF1000413E066
:1032A000119801244AA3012801D16FEA0B01029869
:1032B000119AC0E90031C0E9024206B0BDE8F09FB2
:1032C000CBF10000DFE704460021404A491842EBF9
:1032D0000450CDE9001012E0E00707D032463B462B
:1032E00040464946FDF74AF88046894632463B4605
:1032F00010461946FDF742F806460F466410002CAA
:10330000EAD1DDE90401DDE90023BAF1000F06DAB4
:10331000FDF734F842464B46FDF730F805E0FDF77F
:103320009FF842464B46FDF79BF804460E460022A6
:10333000284BFDF74DF903D84FF0FF30014607E069
:103340000022254B20463146FCF771FFFDF797FA26
:10335000102409E0002C0ADB0A220023FDF782F981
:10336000039B30321A55641E50EA0102F2D1641CEC
:10337000039AC4F111031444119A012A03D00122C3
:1033800008430DD10AE0084304D000204FF0110B90
:10339000119072E7A3EB0B056D1E0DE05B4504DD9C
:1033A0004FF0000205F1010504E003DA4FF00002DE
:1033B000A5F10105002AECD002981199C0E902316B
:1033C000C0E9004579E70000000014400000F03F2C
:1033D000300000000000F0430000E03F2DE9FF4F07
:1033E00095B09B468946064600250FE2252877D1F1
:1033F00000242746F84A0121059400E0044316F80A
:10340000013F203B01FA03F01042F7D130782A281F
:1034100011D06FF02F033078A0F13002092A16D8AE
:10342000059A44F0020402EB820203EB42021044CC
:10343000761C0590EFE759F8042B0592002A03DA71
:10344000504244F40054059044F00204761C307855
:103450002E2816D116F8010F44F004042A280DD0A6
:103460006FF02F023078A0F13003092B09D807EB59
:10347000870302EB4303C718761CF3E759F8047B74
:10348000761C30786C280FD006DC4C2817D06828C2
:103490000DD06A2814D104E0742810D07A280FD1F6
:1034A0000DE044F400140AE044F4801401E044F414
:1034B00040147278824202D104F58014761C761C86
:1034C000307866280BD013DC582877D009DC002828
:1034D00075D04528F6D04628F4D047281AD19DE16A
:1034E00018E0632835D0642879D0652812D195E199
:1034F000702873D008DC6728F1D069286FD06E2857
:103500000DD06F2806D1B5E073282CD0752875D062
:10351000782874D05A46179990476D1C75E1C4F30A
:103520000250022809D003280DD0D9F80010042831
:103530000DD00D6009F1040967E1D9F80010EA1710
:10354000C1E90052F6E7D9F800100D80F2E70D70DE
:10355000F0E719F8041B8DF8001000208DF8010029
:10356000EA46012003E059F804AB4FF0FF30610751
:103570004FF0000102D40DE008F101018846B94284
:103580000FDA8045F8DB1AF808100029F4D108E0BA
:1035900008F1010188468142FADB1AF80810002977
:1035A000F6D105985B46A0EB080721463846179AE6
:1035B00000F094FA284400EB080507E04DE029E10B
:1035C0000DE01AF8010B5A4617999047B8F1010817
:1035D000F7D25B4621463846179A13E142E00A22A9
:1035E0000092C4F302524FF0000A022A08D059F8A0
:1035F00004CB032A4FEAEC710AD00DE029E02AE05F
:1036000009F1070121F00702F2E802C1914609E041
:103610000FFA8CFC4FEAEC71042A03D14FFA8CFCB0
:103620004FEAEC71002907DA0A460021DCF1000CB0
:1036300061EB02012D2202E0220504D52B228DF838
:103640000420012203E0E20701D02022F7E79046A0
:1036500059E00A2102E010220DE010214FF0000A8B
:1036600000910BE010224FF0000A44F004040827F8
:10367000009203E008224FF0000A0092C4F30252C5
:10368000022A05D059F804CB0021032A08D009E00A
:1036900009F1070121F00702F2E802C1914605E0B5
:1036A0001FFA8CFC042A01D10CF0FF0C4FF000082B
:1036B000220728D5702806D0009B83F0100353EA18
:1036C0000A0305D00EE040228DF80420012208E014
:1036D0005CEA010206D030228DF804208DF8050046
:1036E00002229046009B83F0080353EA0A030AD1A2
:1036F0005CEA010201D1620705D530228DF8042071
:103700004FF001087F1E582804D034A003900EA863
:1037100002900DE036A0F9E753466046009AFCF7A8
:10372000A1FF84460398825C0298401E02900270BA
:103730005CEA0100F0D1029806A9081A00F1200AFB
:10374000600702D524F4803400E00127574502DDEC
:10375000A7EB0A0000E0002000EB0A0100900598AA
:103760004144401A0590E00306D45B462146179A6F
:10377000059800F0B3F90544002706E001A85A4671
:10378000C05D179990476D1C7F1C4745F6DBE00331
:103790000CD55B462146179A059800F09FF9054421
:1037A00004E030205A46179990476D1C0099481E36
:1037B00000900029F5DC08E0029802995A4600784A
:1037C000491C0291179990476D1CBAF10001AAF1AA
:1037D000010AF1DC65E100000928010030313233D3
:1037E000343536373839616263646566000000003D
:1037F0003031323334353637383941424344454627
:103800000000000000F058F90544761C30780028CC
:103810007FF4ECAD19B02846BDE8F08F620700D404
:10382000062709F1070222F0070CFCE80223E14613
:1038300003F000485FEA080C02D00FF2702C0DE094
:103840005FEA045C02D50FF2682C07E05FEAC47CF3
:1038500002D00FF2602C01E0AFF2700C4FF0FF3895
:1038600023F00043CDF850C065280CD006DC452875
:1038700009D046281DD047283DD13DE0662818D004
:1038800067287ED138E00021112F01DB112000E0F4
:10389000781CCDE9000106A90EA8FFF7DDFCDDE9E3
:1038A0000F010E9A03910021009207F1010A049181
:1038B0004DE04FF000400097CDE9011006A90EA899
:1038C000FFF7CAFCDDE90F0203920E9B119900225B
:1038D000DDF80CA00093049211B9791C00EB010AE9
:1038E000B7EB0A0004D4C0F1FF3007F1010A0490DD
:1038F000AAEB0700019044E0012F00DA0127002124
:10390000112F01DD112000E03846CDE9000106A9A4
:103910000EA8FFF7A1FCDDE90F010E9A039100212B
:1039200004910092BA4621070CD40399514500DA5C
:103930008A46BAF1010F05DD009AAAF10101515C36
:10394000302908D0B84202DA10F1040F06DA01215A
:10395000CDE9011015E0AAF10101E9E7002805DC35
:10396000049901440491AAEB000102E0411C514575
:1039700000DD8A460499401A401C01904FF0004037
:103980000290200704D40198504501DBCDF8048053
:1039900000208DF84F0002980DF14F07B0F1004F55
:1039A00025D02B200E9002984FF0020800280CDA48
:1039B000404202902D200E9007E00A210298FCF769
:1039C0003BFE3031029007F8011DB8F10001A8F16B
:1039D0000108F2DC02980028EFD1791E0E980870D9
:1039E000307800F0200040F0450007F8020D12A8E2
:1039F000C01B00F107081498007800B1012000EB0B
:103A00000A01019801EBE07105984144401A401EFB
:103A10000590E00306D45B462146179A059800F00E
:103A20005DF805441498007818B15A4617999047E4
:103A30006D1CE00324D55B462146179A059800F0DB
:103A40004DF805441CE00498002807DBDDE903017C
:103A5000884203DD0098405C179901E017993020F7
:103A60005A469047049805F10105401C04900198BE
:103A7000401E019004D12E205A46179990476D1C84
:103A8000BAF10001AAF1010ADDDC05E017F8010B2B
:103A90005A46179990476D1CB8F10001A8F101082A
:103AA000F4DC5B462146179A0598ABE62D00000032
:103AB0002B000000200000002DE9F0410446002505
:103AC0001E461746880404D405E039462020B04736
:103AD0006D1C641EF9D52846BDE8F0812DE9F04142
:103AE000044600251E469046C80301D5302700E055
:103AF0002027880404D505E041463846B0476D1CB0
:103B0000641EF9D52846BDE8F0814A68002A06D02F
:103B10000A68531C0B6010704868401E486070476C
:103B20000A68531C0B6010707047000070B50446A3
:103B300022E02568A08900F4807020B9A06810B147
:103B4000A068FFF7F3FFA08900F4807028B920690E
:103B500018B10B49206909688847A08900F40070F2
:103B600028B9206A18B10649206A096888472046A2
:103B70000349096888472C46002CDAD170BD000043
:103B80001800002070B505460E46AC6800E02468B9
:103B90002CB13146206A00F04FF80028F7D12046BA
:103BA00070BD000010B52820054909688847044603
:103BB0001CB128212046FCF7D4FA204610BD000095
:103BC0001400002010B5044600221146204600F0E3
:103BD00001F810BD2DE9F04780460D461646002439
:103BE000FFF7E0FF07460020124908600FB9BDE863
:103BF000F087404601F0B0FA81464946384600F069
:103C000061FD044624B93846FFF790FF0020EEE737
:103C100066B1204601F0A0FA0446207830B138465B
:103C2000FFF784FF034804600020E0E705B12C6043
:103C30003846DCE71000002070B504460D462CB96C
:103C4000AC4201D0012070BD0020FCE70DB901207D
:103C5000F9E705E0207808B90020F4E7641C6D1C42
:103C60002078FCF75FFA06462878FCF75BFA864274
:103C7000F0D02078FCF756FA06462878FCF752FA7E
:103C8000301AE0E710B504466FF00400FEF7AEFE10
:103C9000E11704EB5171C1F3C701074A11701046D7
:103CA000007800EB4001C1EBC0104FF6FF7101EA54
:103CB000C0000249088010BD300000203200002002
:103CC00070B504464FF4077094FBF0F0C6B24FF4A1
:103CD000077094FBF0F100FB114085B205E04FF452
:103CE000077000F02FF8701EC6B2002EF7D115B184
:103CF000284600F027F870BD0146114A12784A4361
:103D00004FF0E0235A6100229A611A46126942F08C
:103D100001021A6100BF4FF0E022106900F00102B9
:103D20001AB100F48032002AF5D04FF0E022126977
:103D300022F001024FF0E0231A6100229A617047DD
:103D4000300000200146114A12884A434FF0E02318
:103D50005A6100229A611A46126942F001021A6100
:103D600000BF4FF0E022106900F001021AB100F428
:103D70008032002AF5D04FF0E022126922F00102D1
:103D80004FF0E0231A6100229A6170473200002050
:103D900070B504460D4640210748FFF77FF8E1B2B1
:103DA0000548FFF75EF900BF40210348FFF78BF895
:103DB0000028F9D0204670BD0044004010B500280E
:103DC00021D0114B0022001F196803E0814203D863
:103DD0000A4649680029F9D152B11368841A9C42F5
:103DE00004D1006818441060104602E0506000E002
:103DF000186039B102680B1A934203D10B681A4458
:103E000002604968416010BD4400002008B50024EC
:103E10004820FFF737FF3220FFF752FF4FF4E13021
:103E2000FEF7D6FF3220FFF74BFF4FF4E130FEF7ED
:103E300051FF3220FFF744FFFDF726FB3220FFF74A
:103E40003FFFFEF75DFE3220FFF73AFF0223364ABE
:103E500036493748FEF7B4F83220FFF731FFFCF758
:103E60008BFD3220FFF72CFF3148FEF7E3F83220BC
:103E7000FFF726FFFDF7BCF83220FFF721FF2DA04A
:103E8000FFF70EF903E04FF4FA70FFF719FF31A1C5
:103E900032A0FDF757F90028F5D13CA0FFF700F953
:103EA00003E04FF4FA70FFF70BFFFEF767F9002805
:103EB000F7D1FEF717F936E03B480088012804D116
:103EC000FCF7E8FE002038490880384800880128BF
:103ED00013D13748C078009035488378427801780C
:103EE00034A0FFF7DDF83DA0FFF7DAF8FEF7BAFBE4
:103EF00000202E490880FDF745F83F48008801283A
:103F000006D1FDF731FE00203B490880FDF73AF865
:103F10004FF4FA70FDF744F8044614B12046FEF75A
:103F2000F1FAFDF72FF8C7E7340000204C240140D8
:103F300008000240D5FDD4DAC1ACBDD34F6E656E2A
:103F40006574B7FECEF1C6F72E2E2E2E2E2E0D0A3C
:103F500000000000434F4E4E4543540041542B4354
:103F6000495053544152543D22544350222C226D07
:103F7000717474732E6865636C6F7564732E636FF0
:103F80006D222C313838330D0A000000C1ACBDD38E
:103F90004F6E656E6574B7FECEF1C6F7B3C9B9A6AC
:103FA000A3A10D0A000000003C0000203800002002
:103FB000020000200A4448543131CAAAB6C8A3BA44
:103FC00025642E2564204448543131CEC2B6C8A39E
:103FD000BA25642E25640D0A00000000B7A2CBCDDF
:103FE000CAFDBEDDB5BD4F6E656E6574D6D02E2E92
:103FF0002E2E2E2E0D0A00003A000020F0B50B30B8
:10400000154D20F007010024144A0FE003688B428D
:104010000BD38B4205D95E1A43184768C3E9006782
:1040200000E04368136002C004E0021D106800282D
:10403000ECD12046002802D1286808B10020F0BD4C
:10404000064A07481060074A121A22F00702C0E920
:10405000002401202860D7E7480000204400002009
:1040600054020020500400202DE9F04705460C467C
:1040700020785B2804D0264804600020BDE8F08743
:104080000520E860601C01F067F8044620785D2890
:1040900001D1601CF2E7FFF785FD0646A860A8681D
:1040A00008B90020EAE7204601F056F8804641466C
:1040B000304600F007FB074601F04EF804460CB905
:1040C0000020DBE717E0FFF76DFD071E00D1D5E705
:1040D00037607E603E46601C01F03EF881464946EE
:1040E000304600F0EFFA804601F036F804460CB98D
:1040F0000020C3E700BF20782C28E4D020785D287A
:1041000001D1601CBAE7024804600020B6E7000055
:1041100010000020014600220878302806DB0878CD
:10412000392803DC08783038024415E00878412843
:1041300006DB0878462803DC0878373802440BE0B1
:104140000878612806DB0878662803DC0878573889
:10415000024401E0002070471201491C0878302811
:1041600006DB0878392803DC08783038024415E08B
:104170000878412806DB0878462803DC08783738B9
:1041800002440BE00878612806DB0878662803DC27
:1041900008785738024401E00020DCE71201491C8E
:1041A0000878302806DB0878392803DC08783038AE
:1041B000024415E00878412806DB0878462803DC2D
:1041C0000878373802440BE00878612806DB087865
:1041D000662803DC08785738024401E00020BAE77B
:1041E0001201491C0878302806DB0878392803DCDE
:1041F00008783038024415E00878412806DB087852
:10420000462803DC0878373802440BE00878612838
:1042100006DB0878662803DC08785738024401E09A
:10422000002098E7104696E72DE9F04F8BB08346C3
:104230008A460020044605460026674F002188462E
:1042400089460990012008909AF800002D2802D193
:10425000624F0AF1010A9AF80000302801D10AF1F0
:10426000010A9AF80000312822DB9AF80000392868
:104270001EDC00BF1AF8011BA1F13000FCF764F945
:104280000022574BCDE9060120462946FCF776F877
:10429000CDE90401DDE90623FBF7C9FF04460D461D
:1042A0009AF80000302803DB9AF800003928E1DD95
:1042B0009AF800002E2830D19AF8010030282CDB23
:1042C0009AF80100392828DC0AF1010A00BF1AF81F
:1042D000011BA1F13000FCF737F90022404BCDE97A
:1042E000060120462946FCF749F8CDE90401DDE93D
:1042F0000623FBF79CFF04460D460022364B404642
:104300004946FCF735F8804689469AF8000030287F
:1043100003DB9AF800003928D9DD9AF800006528F7
:1043200003D09AF80000452823D10AF1010A9AF82F
:1043300000002B2802D10AF1010A08E09AF80000D7
:104340002D2804D14FF0FF3008900AF1010A08E04F
:104350001AF8010B3038099901EB810100EB41009B
:1043600009909AF80000302803DB9AF800003928F9
:10437000EEDDDDE9082101FB02F0FCF7E5F842463D
:104380004B46CDE90001FBF752FF02460B46CDE953
:1043900002010020124900F0F3F922462B46CDE934
:1043A000060130463946FBF7E9FFCDE90401DDE9B6
:1043B0000623FBF7E3FF04460D46CBE906452046FE
:1043C0002946FCF7D2F8CBF814000320CBF80C00F8
:1043D00050460BB0BDE8F08F0000F03F0000F0BF8A
:1043E000000024402DE9F04706460C4620787B2843
:1043F00004D0404804600020BDE8F0870620F0604B
:10440000601C00F0A9FE044620787D2801D1601CC4
:10441000F2E7FFF7C7FB0546B060B06808B90020B7
:10442000EAE7204600F098FE80464146284600F024
:1044300063F8074600F090FE04460CB90020DBE765
:10444000286928620020286120783A2803D029486A
:1044500004600020D0E7601C00F07EFE80464146EC
:10446000284600F02FF9074600F076FE04460CB906
:104470000020C1E731E0FFF795FB071E00D1BBE745
:104480002F607D603D46601C00F066FE8146494617
:10449000284600F031F8804600F05EFE04460CB974
:1044A0000020A9E7286928620020286120783A289E
:1044B00003D01048046000209EE7601C00F04CFE12
:1044C00081464946284600F0FDF8804600F044FE4B
:1044D00004460CB900208FE700BF20782C28CAD0F2
:1044E00020787D2801D1601C86E702480460002006
:1044F00082E70000100000202DE9F05F8346884627
:1045000008F10104002798F80000222805D06A4825
:10451000C0F800800020BDE8F09F04E014F8011B03
:104520005C2900D1641C2078222804D0207810B1A6
:10453000781C071EF2D1781C6049096888478146BB
:10454000B9F1000F01D10020E5E708F101044D4663
:104550009EE020785C2804D014F8010B05F8010BCC
:1045600096E0641C2078722818D006DC622809D0F6
:1045700066280BD06E287DD10CE0742812D07528E7
:10458000F9D113E0082005F8010B7FE00C2005F8B5
:10459000010B7BE00A2005F8010B77E00D2005F800
:1045A000010B73E0092005F8010B6FE0601CFFF7B9
:1045B000B1FD0646241DB6F55C4F02D3B6F5604F3B
:1045C00000D306B962E0B6F5584F1CD3B6F55C4F80
:1045D00019D260785C2802D1A078752800D055E007
:1045E000E01CFFF797FD8246A41DBAF55C4F02D38D
:1045F000BAF5604F00D349E0C6F30901504661F3B4
:104600009F2000F580360427802E01D2012708E084
:10461000B6F5006F01D2022703E0B6F5803F00D265
:1046200003273D44012F20D0022F15D0032F0AD09D
:10463000042F24D106F0BF0040F08001681E05461B
:104640000170B60900BF06F0BF0040F08001681E8F
:1046500005460170B60900BF06F0BF0040F08001BA
:10466000681E05460170B60900BF1548C05D30439D
:10467000C1B200E006E0681E0546017000BF00BF41
:104680003D4403E0207805F8010B00BF00BF641C27
:104690002078222803D0207800287FF45AAF002009
:1046A00028702078222800D1641CCBF810900420B8
:1046B000CBF80C0020462EE710000020140000204C
:1046C000B651000870B505460C460CB9002070BD07
:1046D000042224A12046FBF79BFD18B90220E860C4
:1046E000201DF4E7052221A12046FBF791FD18B912
:1046F0000020E860601DEAE704221EA12046FBF7C7
:1047000087FD20B90120E8606861201DDFE720787F
:10471000222804D121462846FFF7EEFED7E720786D
:104720002D2805D02078302807DB2078392804DCB4
:1047300021462846FFF778FDC9E720785B2804D199
:1047400021462846FFF790FCC1E720787B2804D15A
:1047500021462846FFF746FEB9E7084804600020D6
:10476000B5E700006E756C6C0000000066616C734C
:1047700065000000747275650000000010000020E4
:104780002DE9F04D1D460C4698B0174621F000412A
:1047900023F00043002814BF4FF0010C4FF0000C31
:1047A0000CEB440CFE4A0CEB02064FEA620C664529
:1047B0002BD33E0018BF012606EB45061644F94AE6
:1047C000964222D3F84A53EA070C02D0944205D10C
:1047D00048B918B000201146BDE8F08D002808BF88
:1047E0004FF0000C01D04FF0010C0CEB440212F51D
:1047F000001F0AD8002F14BF4FF0010C4FF0000C1F
:104800000CEB450212F5001F07D918B03A462B46AB
:104810002146BDE8F04DFEF7F1BC0022DFF88CA385
:10482000002CB8BF534526DADFF884C36345A8BF20
:10483000022220DADFF870C39C451CDCDFF874C369
:104840000CEB235CBCF1140F08DDCCF1340627FA25
:1048500006FC0CFA06F6BE420DD108E05FB9CCF1B9
:10486000140623FA06FC0CFA06F69E4203D10CF05D
:104870000102C2F1020251EA000C19D1002D17DA2F
:10488000002C18BF022A01D0012A07D00220FEF70F
:10489000DDFC18B0BDE8F04DFEF7A8BC0220FEF725
:1048A000D5FCFEF7A3FC18B081F00041BDE8F08D07
:1048B000B7F1000C6CD1534525D104F1804212F5BB
:1048C000801201BF00280020B74918B008BFBDE81A
:1048D000F08DB548884207DC002DA1BF604629460F
:1048E00018B0BDE8F08D07E0281E05DA80F0004121
:1048F00018B06046BDE8F08DAF497944D1E90001B8
:1049000018B0BDE8F08DDFF8A0C2634525D1002DB9
:104910001FDA19B1514512D1D8B909E0002840F089
:10492000EC82A24A214618B062F31E01BDE8F08D68
:104930000020214618B060F31E01BDE8F08D08DAB2
:1049400018B02346BDE8F04D024600206146FBF753
:1049500087BD18B02146BDE8F08D514518DAB5F194
:10496000804F0DD0A5F1005CBCF1FF5C10D1B4F11B
:10497000000C0DDB18B06146BDE8F04D00F0F5BB52
:10498000234618B00246BDE8F04D1946FBF7F6BCC9
:10499000060024F0004C3BD1D9B1514533D1002C55
:1049A00006DD002DA1BF0020514618B0BDE8F08DF6
:1049B000002C01DD002D1BDB002C13DA002D11DB98
:1049C000012A4FF0000014BF78497C4918B0BDE8B7
:1049D000F08D022A18BF002C0AD0012A08D1002C21
:1049E00006DA0AE0002CB8BF002D11DA012A04D043
:1049F000002018B00146BDE8F08D18B000204FF03F
:104A00000041BDE8F08DA1F14050B0F17F601AD0B7
:104A1000012000EBE47050EA020421D0624C521EE7
:104A20004FF0000B104304BF4FF0000B644C65487F
:104A300083427CDD644A654893421FDD884217DB70
:104A4000002D25DB37E0002C00DA4AB1022A0CBF2A
:104A500001204FF0FF3018B0BDE8F04DFBF774BDFA
:104A60000120FEF7F3FB18B0BDE8F04DFEF7C8BB20
:104A70004D4A8A4202DC002D0ADC1CE0814202DA47
:104A8000002D18DA04E0484B994220DD002D12DD9C
:104A90000220FEF7DBFBFEF7B9FB05460E460022BF
:104AA000534658462146FBF769FC18B066F31E01D1
:104AB0002846BDE8F08D0220FEF7C8FBFEF7AEFBEE
:104AC0000A46214618B062F31E01BDE8F08D0022AF
:104AD00030466146FBF74CFC80460E466FF0010203
:104AE000FBF7B6FE4FF05532394BFBF744FC42461C
:104AF0003346FBF743FC0022364BFBF73CFC824677
:104B000042463346049110461946FBF737FC52469D
:104B1000049BFBF733FC8A4600904FF0C0422E4BBB
:104B200040463146FBF72AFC2C4A2B4B00E027E09D
:104B3000CDE9060151460098FBF720FC8246019121
:104B4000274A284B40463146FBF718FC5246019B4A
:104B5000FBF70EFC82460B4602460591DDE9060195
:104B6000FBF765FBDDE90623002688463046FBF7A8
:104B7000FFFB5246059BFBF7FEFB024600F07EB9A9
:104B80000020B1F5801F07DA352230466146FBF779
:104B90005FFE06466FF0340000EB215024E0000079
:104BA000FFFF1F00FFFF0F000000F03F0000F07F3D
:104BB0000000404301FCFFFF4A0900000000F0FF35
:104BC0000000F0BF0000E0410000F043FFFFEF3FB6
:104BD0005555D53F0000E03F4715F73FFE822B6556
:104BE00044DF5DF80BAE543EA0F2FF300190C1F3FC
:104BF000130040F07F6141F040510291FE4988422C
:104C0000D8BF002004DDFD498142C8BF012001DD7D
:104C10000D9008E000200D900198401C0190029832
:104C2000A0F5801002900299F54878440B910D99F7
:104C300000EBC100D0E900230F9330460A920B9994
:104C4000FBF796FBCDE90601DDE90A2130460F9B13
:104C5000FBF7EDFA02460B460020EA49FBF700FCA1
:104C6000059102460B460090DDE90601FBF786FB45
:104C70001490E5488A464FF000087844029900688D
:104C800012904FF0005040EA61010D980F9B01EB2C
:104C9000804000F5002109910A9A1298FBF768FB01
:104CA00032460B9BFBF767FB42465346FBF766FB1E
:104CB0000646029140465146099B129AFBF75EFB5D
:104CC000DDE90623FBF757FB3246029BFBF750FB5F
:104CD000059B009AFBF752FB0091149A04905346EF
:104CE00010461946FBF74AFB06460246C7480B46E4
:104CF000029106217844FEF723FACDE90510029BC4
:104D0000324610461946FBF739FBDDE90532FBF761
:104D100035FB05910646534640461946149AFBF763
:104D200086FA009B049AFBF729FB3246059BFBF7AA
:104D30007EFACDE905104246534610461946FBF768
:104D40001DFB0022B24B02910A90FBF770FADDE9DD
:104D50000532FBF76CFA0E464246AD4B4046FBF778
:104D600007FB029B0A9AFBF703FBDDE90532FBF721
:104D700002FB424602910A90334610465146FBF729
:104D8000FDFACDE906015346149A02990A98FBF7F9
:104D9000F5FA8A4602903346424600990498FBF79A
:104DA000EDFA5346029AFBF742FA82460B46024658
:104DB0000591DDE90601FBF73AFADDE9062300205B
:104DC00088460646FBF7D4FA5246059BFBF7D3FA12
:104DD000824609914FF060428E4B30464146FBF7C8
:104DE000CDFA049006918C4A8A4B50460999FBF7FC
:104DF000C5FA82460291894A894B30464146FBF703
:104E0000BDFA5246029BFBF712FA864B7B440D9A81
:104E100003EBC203D3E90023FBF709FA0E900791D5
:104E20000198FBF791FB0591DDE9061382460E9A86
:104E30000498FBF7FCF97C4A7A440D9B02EBC30310
:104E4000D3E9002300930292FBF7F1F95246059B48
:104E5000FBF7EDF90026884652463046059BFBF7E6
:104E600087FA009B029AFBF783FA069B049AFBF7EA
:104E70007FFA079B0E9AFBF77EFA024600200B464C
:104E8000029038462946FBF779FA824601912B4673
:104E900038461946029AFBF76BFA32464346FBF74F
:104EA0006DFA5246019BFBF7C2F907468A46324625
:104EB000434629460298FBF761FA05460E463A46F4
:104EC0005346FBF7B4F9594A8846914221DBA8EBD7
:104ED000020353EA000210D12A463346FBF748FA90
:104EE000CDE90401524A534B38465146FBF79FF92E
:104EF000DDE90423FBF76CFB21D20220FEF7A6F9C3
:104F0000FEF784F90A46214618B062F31E01BDE897
:104F1000F08D494B28F000429A4210D3474A08EBE3
:104F2000020353EA00027FF4C6AD2A463346FBF77C
:104F30001FFA3A465346FBF74BFB7FF6BCAD002207
:104F4000019228F000403E493E4A01EB2051824246
:104F500023DA481C4FF4801121FA00F040443A4A09
:104F6000C0F30A517A44394BA1F2FF31CB4020EA19
:104F70000303C0F3130040F48010C1F11401C840D2
:104F800012680190B8F1000FBCBF40420190284662
:104F90003146FBF7EDF905460E462A4633463846BC
:104FA0005146FBF744F94FF000084246284B404673
:104FB0000591FBF7E3F9CDE90601264A264B404669
:104FC0000599FBF7DBF9009102902A4633464046EB
:104FD0000599FBF7CDF93A465346FBF7CCF91F4A42
:104FE0001F4BFBF7CBF9009B029AFBF720F9074612
:104FF000884602460B4635E08E9803007AB60B00D1
:10500000920500000000F03FCA050000F80400000F
:105010000000084009C7EE3FFD033ADCF5015B14D0
:10502000E02F3EBED003000094030000000090403B
:10503000FE822B654715973C00CC904000346F3FB3
:1050400001FCFFFF0000E03FE0020000FFFF0F0057
:10505000432EE63F396CA80C615C20BEEF39FAFEA6
:10506000422EE63FDDE90601FBF7E1F8DDE9062324
:1050700005460E46FBF77CF93A464346FBF77BF9BB
:105080000F462A463346009010461946FBF776F93C
:10509000824602462E4888460B4605217844FEF794
:1050A0004FF852464346FBF769F92A463346FBF769
:1050B00062F980468A463B4628463146009AFBF70D
:1050C0005DF93B46009AFBF7B2F80691009000228A
:1050D0004FF0804340465146FBF74AF90F460C908B
:1050E0004246534628463146FBF748F93B460C9A60
:1050F000FBF7B6F9069B009AFBF73AF92A463346C6
:10510000FBF736F90022134BFBF735F905460198FA
:105110000E4601EB00510815002810DC28463146E8
:10512000019AFBF795FBFDF7F7FF042808BFFEF790
:1051300075F828463146019AFBF78AFB05460B466F
:1051400018B02A4658462146BDE8F04DFBF716B97F
:10515000800100000000F03F00E0401C20B1017819
:1051600011B101782029F8DD70472DE9F04106469C
:105170000F46FBF7AFFB041E0D4618BF0120284366
:1051800020F00040C0F17F6000F1E040C00F0ED081
:10519000301C18BF0120384320F00040C0F17F6070
:1051A00000F1E040C00F04BF0120FEF74FF8204699
:1051B0002946BDE8F0810000C0E0F0F8FC000000E6
:1051C000000000000000F03F000000000000F83F79
:1051D00000000000000000000000004003B8E23FB3
:1051E000000000000000000006D0CF43EBFD4C3E65
:1051F000033333333333E33FFFAB6FDBB66DDB3F5A
:105200004D268F515555D53F01411DA96074D13FA1
:1052100065DBC9934A86CD3FEF4E454A287ECA3F9B
:105220003E5555555555C53F93BDBE166CC166BF1D
:105230002CDE25AF6A56113FF16BD2C541BDBBBE16
:10524000D0A4BE726937663E000000000000000076
:10525000746F706963C3FBB3C63A2025732C207446
:105260006F706963B3A4B6C83A2025642C207061BE
:10527000796C6F6164C3FBB3C63A2025732C207030
:1052800061796C6F6164B3A4B6C83A2025640D0AD5
:10529000000000004F6E654E65745F4465764C6992
:1052A0006E6BA3BA0D0A4445564943455F4E414DC6
:1052B000453A2025732C0950524F4A4543545F49C3
:1052C000443A2025732C09415554484F52495A41BC
:1052D00054494F4E5F494E464F3A25730D0A000020
:1052E00076657273696F6E3D323031382D31302DF5
:1052F0003331267265733D70726F64756374732504
:10530000324634695852325A49345463253246641D
:1053100065766963657325324654656D4E48756DD3
:105320002665743D32363635323731343539266D9F
:105330006574686F643D6D6435267369676E3D48BA
:10534000253246755A3370576E4137377A75507A21
:105350005366667A7870672533442533440000002D
:105360008053000800000020500000002C3200088C
:10537000D053000850000020000800003C32000814
:10538000000000000000000000000000000000001D
:1053900000000000FD3F0008BD3D000800000000C7
:1053A00001020304010203040607080902040608B7
:1053B00000000000000000000000000000000000ED
:1053C00000000000000000000000000000000000DD
:04000005080000ED02
:00000001FF
